:100000000C9435000C945D000C945D000C945D0024
:100010000C945D000C945D000C945D000C945D00EC
:100020000C945D000C945D000C945D000C945D00DC
:100030000C945D000C945D000C945D000C945D00CC
:100040000C9419010C945D000C94B8020C94F40209
:100050000C945D000C945D000C945D000C945D00AC
:100060000C945D000C945D00AF0311241FBECFEF14
:10007000D8E0DEBFCDBF11E0A0E0B1E0EEE1F0E1FD
:1000800002C005900D92AA32B107D9F711E0AAE299
:10009000B1E001C01D92AE3EB107E1F710E0CAE643
:1000A000D0E004C02297FE010E940908C836D1079B
:1000B000C9F70E940F020C940D080C94000040E850
:1000C00055E260E070E087E491E00C942F03CF925A
:1000D000DF92EF92FF928091320190913301A091D3
:1000E0003401B091350180932E0190932F01A0939C
:1000F0003001B09331010E9463016093320170932B
:1001000033018093340190933501C0902E01D0903B
:100110002F01E0903001F09031016C197D098E09BA
:100120009F090E94D0069B01AC0164EA73E986E551
:100130009FE40E9437066B017C0160910001709181
:100140000101882777FD8095982F0E94D2069B0198
:10015000AC01C701B6010E943706FB01462F5F2F95
:10016000682F792F40932A0150932B0160932C0123
:1001700070932D0120E030E44CE956E4BF010E9469
:10018000330687FF3EC08091360190913701A091E0
:100190003801B09139010196A11DB11D809336013E
:1001A00090933701A0933801B093390163E071E077
:1001B00087E491E00E94370440912A0150912B017D
:1001C00060912C0170912D0122E030E087E491E0F4
:1001D0000E94BA058091360190913701A0913801B3
:1001E000B0913901883E9340A105B10551F460E119
:1001F00071E087E491E0FF90EF90DF90CF900C9456
:100200005604FF90EF90DF90CF90089580913C01CD
:100210000E94EE0190933B0180933A018831914016
:1002200014F00E94670064E170E080E090E00C94BC
:100230008D011F920F920FB60F9211242F933F93AF
:100240008F939F93AF93BF9380913E0190913F0115
:10025000A0914001B091410130914601232F2D5FC3
:100260002D3720F40196A11DB11D05C0232F2A575B
:100270000296A11DB11D2093460180933E019093EB
:100280003F01A0934001B0934101809142019091C0
:100290004301A0914401B09145010196A11DB11DFA
:1002A0008093420190934301A0934401B093450190
:1002B000BF91AF919F918F913F912F910F900FBE62
:1002C0000F901F9018950F931F939FB7F89400916C
:1002D000420110914301209144013091450186B5BE
:1002E000A89B06C08F3F21F00F5F1F4F2F4F3F4F3E
:1002F0009FBF322F212F102F0027080F111D211D06
:10030000311D42E0000F111F221F331F4A95D1F704
:10031000B801C9011F910F910895CF92DF92EF921A
:10032000FF92CF93DF936B017C010E946301EB018D
:100330000EC00E9463016C1B7D0B683E734038F059
:1003400081E0C81AD108E108F108C851DC4FC11496
:10035000D104E104F10469F7DF91CF91FF90EF90B0
:10036000DF90CF900895789484B5826084BD84B581
:10037000816084BD85B5826085BD85B5816085BDA0
:10038000EEE6F0E0808181608083E1E8F0E01082B9
:10039000808182608083808181608083E0E8F0E0FA
:1003A000808181608083E1EBF0E0808184608083E4
:1003B000E0EBF0E0808181608083EAE7F0E080811B
:1003C000846080838081826080838081816080837B
:1003D0008081806880831092C10008958E3008F07B
:1003E0008E5087702091020140E4249F90011124D7
:1003F000822B80937C0080917A00806480937A00C5
:1004000080917A0086FDFCCF2091780030917900B0
:10041000932F80E0AC01422B9A01C90108950E94FC
:10042000B3010E945F00CBEED2E00E94060120974C
:10043000E1F30E94EB02F9CFFC0184859585FC0174
:10044000E05CFF4F20813181FC01EE5BFF4F80813A
:100450009181281B390B2F733327C9010895FC01A3
:1004600084859585FC01E05CFF4F40815181FC0152
:10047000EE5BFF4F208131814217530741F001901D
:10048000F081E02DE80FF91F208130E002C02FEF4E
:100490003FEFC9010895FC0184859585FC01E05C6E
:1004A000FF4F40815181FC01EE5BFF4F2081318184
:1004B0004217530781F0A081B181A80FB91F8C9119
:1004C000208131812F5F3F4F2F733327318320836A
:1004D000282F30E002C02FEF3FEFC9010895FC0143
:1004E00086859785FC01E05CFF4FDC01AE5BBF4F6A
:1004F000408151812D913C91119742175307C1F7CB
:100500000895CF93DF93FC0186859785DC01A05C7D
:10051000BF4F2D913C9111972F5F3F4F2F73332782
:10052000EC01CE5BDF4F4881598124173507D9F3A1
:100530000D90BC91A02DA80FB91F6C93A685B7850F
:10054000A05CBF4F11963C932E93A689B7892C913E
:1005500081E090E0058C02C0880F991F0A94E2F7B1
:10056000282B2C9381E090E0DF91CF91089508959E
:100570001F920F920FB60F9211242F933F934F9318
:100580008F939F93EF93FF934091C6008091EA0170
:100590009091EB0101968F7399272091EC01309196
:1005A000ED018217930759F0E091EA01F091EB0118
:1005B000E655FE4F40839093EB018093EA01FF9153
:1005C000EF919F918F914F913F912F910F900FBE7F
:1005D0000F901F90189587E491E00E941C02892BD0
:1005E00011F00C94B70208951F920F920FB60F925C
:1005F00011242F933F938F939F93EF93FF93209119
:10060000A6013091A7018091A8019091A901281716
:10061000390731F48091C1008F7D8093C10014C0EF
:10062000E091A801F091A901EA59FE4F2081809143
:10063000A8019091A90101968F7399279093A90120
:100640008093A8012093C600FF91EF919F918F9115
:100650003F912F910F900FBE0F901F901895CF9242
:10066000DF92EF92FF92CF93DF93EC016A017B015F
:10067000411581EE580761057105F9F0EC89FD8996
:1006800081E090E00E8C02C0880F991F0A94E2F777
:10069000808360E079E08DE390E0A70196010E94FD
:1006A000E50721503109410951095695479537957C
:1006B0002795211580E1380798F0EC89FD89108293
:1006C00060E874E88EE190E0A70196010E94E507DA
:1006D000215031094109510956954795379527957C
:1006E000E889F9893083EA89FB892083EE89FF89CB
:1006F000408181E090E09C010A8C02C0220F331FF0
:100700000A94E2F7422B4083EE89FF8940819C01E5
:100710000B8C02C0220F331F0A94E2F7422B408356
:10072000EE89FF8940819C010C8C02C0220F331F8F
:100730000A94E2F7422B4083EE89FF8920810D8CD9
:1007400002C0880F991F0A94E2F780958223808364
:10075000DF91CF91FF90EF90DF90CF9008951092AE
:100760004A011092490188EE93E0A0E0B0E0809346
:100770004B0190934C01A0934D01B0934E018BE13E
:1007800091E090934801809347018AEA91E0909329
:1007900054018093530186E691E090935601809333
:1007A000550185EC90E0909358018093570184ECBB
:1007B00090E090935A018093590180EC90E09093DF
:1007C0005C0180935B0181EC90E090935E018093EB
:1007D0005D0186EC90E09093600180935F0184E07E
:1007E0008093610183E08093620187E080936301DD
:1007F00085E08093640181E0809365010895CF9244
:10080000DF92EF92FF920F931F93CF93DF936C01D0
:10081000EB017A01E60EF71E00E010E00BC06991D3
:10082000D601ED91FC910190F081E02DC601099572
:10083000080F191FCE15DF0591F7C801DF91CF9181
:100840001F910F91FF90EF90DF90CF900895DB0103
:100850000D900020E9F7AD0141505109461B570B9F
:10086000DC01ED91FC910280F381E02D09940C9460
:100870002704DC01ED91FC910190F081E02D0994B9
:100880000F931F93CF93DF93EC016DE00E94390427
:100890008C016AE0CE010E9439049C01200F311FB7
:1008A000C901DF91CF911F910F9108950F931F936D
:1008B000CF93DF93EC010E9427048C01CE010E94AC
:1008C00040049801280F391FC901DF91CF911F9172
:1008D0000F9108954F925F926F927F929F92AF9285
:1008E000BF92CF92DF92EF92FF920F931F93CF931D
:1008F000DF93CDB7DEB7A1970FB6F894DEBF0FBE7A
:10090000CDBF5C016A017B01922E19A281E08217A2
:1009100010F08AE0982E8E010F5D1F4F492C512C4C
:10092000612C712CC701B601A30192010E94E50759
:100930008C2D929E80191124015011098A3014F4D3
:10094000805D01C0895CF801808369017A01C1146E
:10095000D104E104F10431F7B801C5010E94270474
:10096000A1960FB6F894DEBF0FBECDBFDF91CF9139
:100970001F910F91FF90EF90DF90CF90BF90AF90BD
:100980009F907F906F905F904F900895CF92DF92ED
:10099000EF92FF920F931F93CF93DF93EC016A01C5
:1009A0007B012115310579F4E881F9810190F0810D
:1009B000E02D642FDF91CF911F910F91FF90EF9069
:1009C000DF90CF9009942A30310519F477FD0EC0DD
:1009D0002AE0B701A601CE01DF91CF911F910F91BF
:1009E000FF90EF90DF90CF900C946A046DE20E942C
:1009F00039048C0144275527BA014C195D096E0949
:100A00007F092AE0CE010E946A04080F191FC8015D
:100A1000DF91CF911F910F91FF90EF90DF90CF90DA
:100A200008957F928F929F92AF92BF92CF92DF9262
:100A3000EF92FF920F931F93CF93DF938C014A01A4
:100A40005B01F22E20E030E0A901C501B4010E9453
:100A5000330687FF0AC06DE2C8010E943904EC0129
:100A6000B7FAB094B7F8B09402C0C0E0D0E0E12C7F
:100A700060E070E080E09FE307C020E030E040E20B
:100A800051E40E943706E394EF10F7CF262F372F5B
:100A9000482F592FC501B4010E94CF05762E872E0D
:100AA000982EA92E0E94A406B62EC72ED82EE92E67
:100AB0000E94D0069B01AC01672D782D892D9A2DBF
:100AC0000E94CE05A62E972E882E792E2AE04B2D39
:100AD0005C2D6D2D7E2DC8010E946A04C80FD91FA0
:100AE000FF20B9F167E271E0C8010E942704C80F36
:100AF000D91F2FC020E030E040E251E46A2D792D6B
:100B0000882D972D0E948207762EC72ED82EE92E8B
:100B10000E949F064B01AA2497FCA094BA2C2AE0BD
:100B200030E0B501A401C8010E94C604C80FD91F56
:100B3000C501B4010E94D2069B01AC01672D7C2D3A
:100B40008D2D9E2D0E94CE05A62E972E882E792EB5
:100B5000FA94F110CFCFCE01DF91CF911F910F9179
:100B6000FF90EF90DF90CF90BF90AF909F908F90CD
:100B70007F9008950F931F93CF93DF93EC010E9412
:100B800011058C01CE010E9440049801280F391FE5
:100B9000C901DF91CF911F910F9108955058BB2744
:100BA000AA270ED075C166D130F06BD120F031F498
:100BB0009F3F11F41EF45BC10EF4E095E7FB51C1B9
:100BC000E92F77D180F3BA17620773078407950777
:100BD00018F071F49EF58FC10EF4E0950B2EBA2F2C
:100BE000A02D0B01B90190010C01CA01A001112433
:100BF000FF27591B99F0593F50F4503E68F11A16DF
:100C0000F040A22F232F342F4427585FF3CF46956F
:100C100037952795A795F0405395C9F77EF41F1691
:100C2000BA0B620B730B840BBAF09150A1F0FF0F5B
:100C3000BB1F661F771F881FC2F70EC0BA0F621F47
:100C4000731F841F48F4879577956795B795F79537
:100C50009E3F08F0B3CF9395880F08F09927EE0FC9
:100C6000979587950895D9D008F481E008950CD020
:100C70000FC107D140F0FED030F021F45F3F19F0F2
:100C8000F0C0511139C1F3C014D198F39923C9F3BD
:100C90005523B1F3951B550BBB27AA276217730782
:100CA000840738F09F5F5F4F220F331F441FAA1F36
:100CB000A9F333D00E2E3AF0E0E830D091505040F6
:100CC000E695001CCAF729D0FE2F27D0660F771FA4
:100CD000881FBB1F261737074807AB07B0E809F086
:100CE000BB0B802DBF01FF2793585F4F2AF09E3F1B
:100CF000510568F0B6C000C15F3FECF3983EDCF3ED
:100D0000869577956795B795F7959F5FC9F7880F93
:100D1000911D9695879597F90895E1E0660F771FE5
:100D2000881FBB1F621773078407BA0720F0621B76
:100D3000730B840BBA0BEE1F88F7E095089504D06F
:100D40006894B111D9C00895BCD088F09F5790F035
:100D5000B92F9927B751A0F0D1F0660F771F881FE0
:100D6000991F1AF0BA95C9F712C0B13081F0C3D0FB
:100D7000B1E00895C0C0672F782F8827B85F39F099
:100D8000B93FCCF3869577956795B395D9F73EF43F
:100D900090958095709561957F4F8F4F9F4F0895E7
:100DA000E89409C097FB3EF4909580957095619505
:100DB0007F4F8F4F9F4F9923A9F0F92F96E9BB27BB
:100DC0009395F695879577956795B795F111F8CF37
:100DD000FAF4BB0F11F460FF1BC06F5F7F4F8F4FA2
:100DE0009F4F16C0882311F096E911C0772321F098
:100DF0009EE8872F762F05C0662371F096E8862F30
:100E000070E060E02AF09A95660F771F881FDAF786
:100E1000880F9695879597F90895990F0008550FB3
:100E2000AA0BE0E8FEEF16161706E807F907C0F070
:100E300012161306E407F50798F0621B730B840B78
:100E4000950B39F40A2661F0232B242B252B21F452
:100E500008950A2609F4A140A6958FEF811D811DF2
:100E6000089597F99F6780E870E060E008959FEF2C
:100E700080EC089500240A94161617061806090631
:100E8000089500240A941216130614060506089500
:100E9000092E0394000C11F4882352F0BB0F40F488
:100EA000BF2B11F460FF04C06F5F7F4F8F4F9F4FC8
:100EB000089557FD9058440F551F59F05F3F71F04A
:100EC0004795880F97FB991F61F09F3F79F08795B1
:100ED0000895121613061406551FF2CF4695F1DF3A
:100EE00008C0161617061806991FF1CF86957105CA
:100EF000610508940895E894BB2766277727CB01FE
:100F000097F908950BD0C4CFB5DF28F0BADF18F0F9
:100F1000952309F0A6CFABCF1124EECFCADFA0F303
:100F2000959FD1F3950F50E0551F629FF001729F7E
:100F3000BB27F00DB11D639FAA27F00DB11DAA1F9D
:100F4000649F6627B00DA11D661F829F2227B00DEA
:100F5000A11D621F739FB00DA11D621F839FA00D75
:100F6000611D221F749F3327A00D611D231F849FC5
:100F7000600D211D822F762F6A2F11249F5750401C
:100F80008AF0E1F088234AF0EE0FFF1FBB1F661FB7
:100F9000771F881F91505040A9F79E3F510570F070
:100FA00060CFAACF5F3FECF3983EDCF38695779550
:100FB0006795B795F795E7959F5FC1F7FE2B880F6B
:100FC000911D9695879597F90895A1E21A2EAA1B6F
:100FD000BB1BFD010DC0AA1FBB1FEE1FFF1FA217E9
:100FE000B307E407F50720F0A21BB30BE40BF50BE6
:100FF000661F771F881F991F1A9469F7609570956F
:10100000809590959B01AC01BD01CF010895EE0F35
:0E101000FF1F0590F491E02D0994F894FFCF96
:10101E0001000150756C7365506F7765723A200050
:10102E006B57683A203100000000008102FF031C5C
:0A103E00024B022F026F022E000089
:00000001FF
